:03000000020800F3
:0C080000787FE4F6D8FD75810702000047
:02000000804E30
:0200030061ECAE
:02001300A1B892
:02002B0061CEA4
:02000B0001AC46
:02004B00812F03
:10005000780079007A007B007C007D007E057525A4
:10006000007527007528007529007530007531006E
:10007000753200753300753400753500752405C27E
:10008000B0C2B7D288C28A75A8AB75B82B7184117B
:10009000ED51DCE525B402F5EDB530F1ECB529ED17
:1000A000EBB528E9EAB527E571A280E1C28DB2B7C8
:1000B000758C15758AA08F33AF8DBF010FAF8BBFC5
:1000C000F50A758B00758D00AF3311CD320DBD0A69
:1000D0001B7D000CBC06157C000BBA0209BB040C8E
:1000E0007B007A008006BB0A037B000A2275A07F92
:1000F0007172E5A0540F7900B40F2C75A0BF717216
:10010000E5A0540F7904B40F1E75A0DF7172E5A04D
:10011000540F7908B40F1075A0EF7172E5A0540F59
:10012000790CB40F24806DB40E0478008051B40DA6
:10013000047801804AB40B07B9083C714F8055B46C
:100140000752B90836715E804BB40E047196804434
:10015000B40D04719C803DB40B13E524B5250280D9
:1001600033852524752503717771F88027B407241A
:100170008524257177801D7802800478038000BE75
:1001800000028010AF25BF010451308007BF030279
:100190008002319522BE041DE928B40006FA1E71C2
:0301A00077412F75
:1001A300B40106FA1E7177412FB40232FA1E717739
:1001B300807ABE0331E928BA0226B40006FB1E7119
:1001C300778069B40106FB1E71778060B40206FB79
:1001D3001E71778057B40306FB1E7177804E804CE7
:1001E300FB1E71778046BE0238E928B40006FC1E68
:1001F30071778038B40106FC1E7177802FB4020634
:10020300FC1E71778026B40306FC1E7177801DB433
:100213000406FC1E71778014B40511FC1E717780EF
:100223000BBE0108E928FD1E7177800022BE042061
:10023300E928B40007F5271E717741DBB40107F500
:10024300271E717741DBB40239F5271E717741DB35
:10025300BE0338E928AF27BF022AB40007F5281EDA
:1002630071778074B40107F5281E7177806AB40230
:1002730007F5281E71778060B40307F5281E717790
:1002830080568054F5281E7177804DBE023EE928C2
:10029300B40007F5291E7177803EB40107F5291EC6
:1002A30071778034B40207F5291E7177802AB4036D
:0602B30007F5291E71771A
:1002B9008020B40407F5291E71778016B40513F55B
:1002C900291E7177800CBE0109E928F5301E717766
:1002D900800022F536AF25BF0122E5302470F58074
:1002E9007172E52924B0F5807172E52824D0F58072
:1002F9007172E52724E0F58071728047BF03287E7B
:10030900FFE5352470F5807172E53424B0F580710C
:1003190072E53224D0F5807172E53124E0F58071FF
:1003290072DEDE7E00801C74702DF580717274B0EF
:100339002CF580717274D02BF580717274E02AF5F6
:10034900807172E53622C28CC28DC2B7758B007579
:100359008D007E0422758951758C15758AA07E00E1
:10036900C28FC28DD28CD28E227FFADFFE2279C84B
:1003790078647F28DFFED8FAD9F62220900875A87C
:10038900AF75B82F800675A8AB75B82B22752501F6
:100399007E04227525027E00229005CB75C8007E59
:1003A900017903786ED28875CDF775CC1F75CBF7B7
:1003B90075CA1FC2CFD2CA51DCBE00FB51DCEDB5F4
:1003C900300280F822C2CFB2B6D817E993F5CDF53D
:0A03D900CB09E993F5CCF5CA09E958
:1003E30093F809B92102790032C2CAC2CFC2B67EDC
:1003F300007525003275C5E24391045392FB438E89
:100403004043AD0253C5EF43C5087172AF25BF0327
:10041300127184F522E5C55410B400F043C5087188
:100423007280E953C5E7752405E5222253C5E71118
:10043300ED51DC7184E5BE75F06484F532E5F07549
:10044300F00A84F534E5F0F535E5C6B400057531F9
:1004530000A1B5B40178E535B400062406F535806E
:1004630027B401062406F535801EB402062406F5DA
:10047300358015B403062406F535800C2406940A4A
:10048300F535E5342401F534E534B400062405F5E7
:10049300348030B401062405F5348027B4020624E1
:1004A30005F534801EB403062405F5348015B40421
:1004B300062405F534800C2405940AF534E532242A
:1004C30001F532E5322402F532753100A1B5B402EB
:1004D3005BE535B4080E2402940AF535E5342401AE
:1004E300F5348015B4090E2402940AF535E5342455
:1004F30001F53480042402F535E534B4090E2401F2
:10050300940AF534E5322401F5328015B40A0E2439
:1005130001940AF534E5322401F53280042401F50F
:0705230034E5322405F53236
:10052A00753100A1B5B40346E535B400062408F5D3
:10053A00358015B401062408F535800C2408940A80
:10054A00F535E5342401F534E534B400062406F51E
:10055A00348029B401062406F5348020B402062426
:10056A0006F5348017B403082406F534800E803B60
:10057A002406940AF534E5322401F532E532B40052
:10058A00092407F5327531008021B401092407F5E1
:10059A00327531008015B402092407F5327531002D
:1005AA0080092407940AF53275310151DC32795AEF
:1005BA007802D2B67172C2B67172D8F6D9F251DC2B
:1005CA0032F71F6EF4CE57F11741F4CE57F6086290
:1005DA00F888FAF60862F71F6EF60862F11741F416
:0205EA00CEAF92
:00000001FF
